{
    "contractName": "WavePortal",
    "abi": [
        {
            "inputs": [],
            "stateMutability": "nonpayable",
            "type": "constructor"
        },
        {
            "inputs": [],
            "name": "getTotalWaves",
            "outputs": [
                {
                    "internalType": "uint256",
                    "name": "",
                    "type": "uint256"
                }
            ],
            "stateMutability": "view",
            "type": "function"
        },
        {
            "inputs": [],
            "name": "keepTrackOfWhoWaved",
            "outputs": [],
            "stateMutability": "nonpayable",
            "type": "function"
        },
        {
            "inputs": [],
            "name": "wave",
            "outputs": [],
            "stateMutability": "nonpayable",
            "type": "function"
        }
    ],
    "bytecode": "608060405234801561001057600080fd5b5061003c60405180606001604052806025815260200161053e6025913961004160201b61018f1760201c565b610101565b6100888160405160240161005591906100ac565b60408051601f198184030181529190526020810180516001600160e01b0390811663104c13eb60e21b1790915261008b16565b50565b80516a636f6e736f6c652e6c6f67602083016000808483855afa5050505050565b600060208083528351808285015260005b818110156100d9578581018301518582016040015282016100bd565b818111156100eb576000604083870101525b50601f01601f1916929092016040019392505050565b61042e806101106000396000f3fe608060405234801561001057600080fd5b50600436106100415760003560e01c80636fe15b44146100465780639a2cdc08146100505780639cbcc7821461006a575b600080fd5b61004e610072565b005b6100586100c7565b60405190815260200160405180910390f35b61004e610103565b600080549080610081836102e6565b91905055506100bd604051806040016040528060158152602001742573206a75737420776176656420617420796f752160581b815250336101d5565b6100c5610103565b565b60006100fc6040518060400160405280600f81526020016e151bdd185b081dd85d995cce880959608a1b81525060005461021e565b5060005490565b33600090815260016020819052604082208054919290916101259084906102ff565b909155505033600090815260016020526040902054156100c557604080518082018252601d81527f25732068617320776176656420617420796f752025642074696d6573210000006020808301919091523360008181526001909252929020546100c59290610263565b6101d2816040516024016101a39190610364565b60408051601f198184030181529190526020810180516001600160e01b031663104c13eb60e21b1790526102af565b50565b61021a82826040516024016101eb92919061037e565b60408051601f198184030181529190526020810180516001600160e01b031663319af33360e01b1790526102af565b5050565b61021a82826040516024016102349291906103a8565b60408051601f198184030181529190526020810180516001600160e01b03166309710a9d60e41b1790526102af565b6102aa83838360405160240161027b939291906103ca565b60408051601f198184030181529190526020810180516001600160e01b03166307c8121760e01b1790526102af565b505050565b80516a636f6e736f6c652e6c6f67602083016000808483855afa5050505050565b634e487b7160e01b600052601160045260246000fd5b6000600182016102f8576102f86102d0565b5060010190565b60008219821115610312576103126102d0565b500190565b6000815180845260005b8181101561033d57602081850181015186830182015201610321565b8181111561034f576000602083870101525b50601f01601f19169290920160200192915050565b6020815260006103776020830184610317565b9392505050565b6040815260006103916040830185610317565b905060018060a01b03831660208301529392505050565b6040815260006103bb6040830185610317565b90508260208301529392505050565b6060815260006103dd6060830186610317565b6001600160a01b03949094166020830152506040015291905056fea26469706673582212209434009c02cb3a740487fefeecd1c3bf383393ac4887af6185f8b4e7e972676d64736f6c634300080d0033596f20796f2c204920616d206120636f6e747261637420616e64204920616d20736d617274",
    "sourcePath": "/home/kenneth/Desktop/buildspace/my-wave-portal/contracts/WavePortal.sol",
    "compiler": {
        "name": "solc",
        "version": "0.8.13+commit.abaa5c0e"
    },
    "functionHashes": {
        "getTotalWaves()": "9a2cdc08",
        "keepTrackOfWhoWaved()": "9cbcc782",
        "wave()": "6fe15b44"
    },
    "gasEstimates": {
        "creation": {
            "codeDepositCost": "214000",
            "executionCost": "infinite",
            "totalCost": "infinite"
        },
        "external": {
            "getTotalWaves()": "infinite",
            "keepTrackOfWhoWaved()": "infinite",
            "wave()": "infinite"
        }
    }
}